{
  "_format": "hh-sol-artifact-1",
  "contractName": "Voting",
  "sourceName": "contracts/Voting.sol",
  "abi": [
    {
      "anonymous": false,
      "inputs": [
        {
          "indexed": false,
          "internalType": "uint256",
          "name": "id",
          "type": "uint256"
        },
        {
          "indexed": false,
          "internalType": "string",
          "name": "name",
          "type": "string"
        }
      ],
      "name": "PollCreated",
      "type": "event"
    },
    {
      "anonymous": false,
      "inputs": [
        {
          "indexed": false,
          "internalType": "uint256",
          "name": "id",
          "type": "uint256"
        },
        {
          "indexed": false,
          "internalType": "address",
          "name": "voter",
          "type": "address"
        },
        {
          "indexed": false,
          "internalType": "uint256",
          "name": "option",
          "type": "uint256"
        }
      ],
      "name": "Voted",
      "type": "event"
    },
    {
      "inputs": [
        {
          "internalType": "string",
          "name": "_name",
          "type": "string"
        },
        {
          "internalType": "string[]",
          "name": "_opts",
          "type": "string[]"
        },
        {
          "internalType": "uint256",
          "name": "_duration",
          "type": "uint256"
        }
      ],
      "name": "createPoll",
      "outputs": [],
      "stateMutability": "nonpayable",
      "type": "function"
    },
    {
      "inputs": [
        {
          "internalType": "uint256",
          "name": "",
          "type": "uint256"
        }
      ],
      "name": "polls",
      "outputs": [
        {
          "internalType": "string",
          "name": "name",
          "type": "string"
        },
        {
          "internalType": "uint256",
          "name": "deadline",
          "type": "uint256"
        }
      ],
      "stateMutability": "view",
      "type": "function"
    },
    {
      "inputs": [
        {
          "internalType": "uint256",
          "name": "id",
          "type": "uint256"
        }
      ],
      "name": "results",
      "outputs": [
        {
          "internalType": "uint256[]",
          "name": "",
          "type": "uint256[]"
        }
      ],
      "stateMutability": "view",
      "type": "function"
    },
    {
      "inputs": [
        {
          "internalType": "uint256",
          "name": "id",
          "type": "uint256"
        },
        {
          "internalType": "uint256",
          "name": "opt",
          "type": "uint256"
        }
      ],
      "name": "vote",
      "outputs": [],
      "stateMutability": "nonpayable",
      "type": "function"
    },
    {
      "inputs": [
        {
          "internalType": "uint256",
          "name": "",
          "type": "uint256"
        },
        {
          "internalType": "address",
          "name": "",
          "type": "address"
        }
      ],
      "name": "voted",
      "outputs": [
        {
          "internalType": "bool",
          "name": "",
          "type": "bool"
        }
      ],
      "stateMutability": "view",
      "type": "function"
    }
  ],
  "bytecode": "0x608060405234801561001057600080fd5b506111ff806100206000396000f3fe608060405234801561001057600080fd5b50600436106100575760003560e01c80631b0c27da1461005c5780635277b4ae1461008c578063ac2f0074146100bc578063b384abef146100ed578063f8c860f414610109575b600080fd5b610076600480360381019061007191906106f9565b610125565b60405161008391906107e4565b60405180910390f35b6100a660048036038101906100a19190610864565b6101a2565b6040516100b391906108bf565b60405180910390f35b6100d660048036038101906100d191906106f9565b6101d1565b6040516100e4929190610979565b60405180910390f35b610107600480360381019061010291906109a9565b61028d565b005b610123600480360381019061011e9190610c04565b610474565b005b60606000828154811061013b5761013a610c8f565b5b906000526020600020906004020160030180548060200260200160405190810160405280929190818152602001828054801561019657602002820191906000526020600020905b815481526020019060010190808311610182575b50505050509050919050565b60016020528160005260406000206020528060005260406000206000915091509054906101000a900460ff1681565b600081815481106101e157600080fd5b906000526020600020906004020160009150905080600001805461020490610ced565b80601f016020809104026020016040519081016040528092919081815260200182805461023090610ced565b801561027d5780601f106102525761010080835404028352916020019161027d565b820191906000526020600020905b81548152906001019060200180831161026057829003601f168201915b5050505050908060020154905082565b60008083815481106102a2576102a1610c8f565b5b90600052602060002090600402019050806002015442106102f8576040517f08c379a00000000000000000000000000000000000000000000000000000000081526004016102ef90610d6a565b60405180910390fd5b6001600084815260200190815260200160002060003373ffffffffffffffffffffffffffffffffffffffff1673ffffffffffffffffffffffffffffffffffffffff16815260200190815260200160002060009054906101000a900460ff1615610396576040517f08c379a000000000000000000000000000000000000000000000000000000000815260040161038d90610dd6565b60405180910390fd5b600180600085815260200190815260200160002060003373ffffffffffffffffffffffffffffffffffffffff1673ffffffffffffffffffffffffffffffffffffffff16815260200190815260200160002060006101000a81548160ff02191690831515021790555080600301828154811061041457610413610c8f565b5b90600052602060002001600081548092919061042f90610e25565b91905055507f1abe610cf2bf87e57dcc1181fcf5ac0934e843d8344ab9eed6e86c799f62585e83338460405161046793929190610e7c565b60405180910390a1505050565b6000806001816001815401808255809150500390600052602060002090600402019050838160000190816104a8919061105f565b50828160010190805190602001906104c1929190610588565b5081426104ce9190611131565b8160020181905550825167ffffffffffffffff8111156104f1576104f06109f3565b5b60405190808252806020026020018201604052801561051f5781602001602082028036833780820191505090505b508160030190805190602001906105379291906105e1565b507f65d5ac2bf1bca69566bef1affdfca5bb37b9577fc0b3af4c7c4638225e67b39c600160008054905061056b9190611165565b8560405161057a929190611199565b60405180910390a150505050565b8280548282559060005260206000209081019282156105d0579160200282015b828111156105cf5782518290816105bf919061105f565b50916020019190600101906105a8565b5b5090506105dd919061062e565b5090565b82805482825590600052602060002090810192821561061d579160200282015b8281111561061c578251825591602001919060010190610601565b5b50905061062a9190610652565b5090565b5b8082111561064e5760008181610645919061066f565b5060010161062f565b5090565b5b8082111561066b576000816000905550600101610653565b5090565b50805461067b90610ced565b6000825580601f1061068d57506106ac565b601f0160209004906000526020600020908101906106ab9190610652565b5b50565b6000604051905090565b600080fd5b600080fd5b6000819050919050565b6106d6816106c3565b81146106e157600080fd5b50565b6000813590506106f3816106cd565b92915050565b60006020828403121561070f5761070e6106b9565b5b600061071d848285016106e4565b91505092915050565b600081519050919050565b600082825260208201905092915050565b6000819050602082019050919050565b61075b816106c3565b82525050565b600061076d8383610752565b60208301905092915050565b6000602082019050919050565b600061079182610726565b61079b8185610731565b93506107a683610742565b8060005b838110156107d75781516107be8882610761565b97506107c983610779565b9250506001810190506107aa565b5085935050505092915050565b600060208201905081810360008301526107fe8184610786565b905092915050565b600073ffffffffffffffffffffffffffffffffffffffff82169050919050565b600061083182610806565b9050919050565b61084181610826565b811461084c57600080fd5b50565b60008135905061085e81610838565b92915050565b6000806040838503121561087b5761087a6106b9565b5b6000610889858286016106e4565b925050602061089a8582860161084f565b9150509250929050565b60008115159050919050565b6108b9816108a4565b82525050565b60006020820190506108d460008301846108b0565b92915050565b600081519050919050565b600082825260208201905092915050565b60005b838110156109145780820151818401526020810190506108f9565b60008484015250505050565b6000601f19601f8301169050919050565b600061093c826108da565b61094681856108e5565b93506109568185602086016108f6565b61095f81610920565b840191505092915050565b610973816106c3565b82525050565b600060408201905081810360008301526109938185610931565b90506109a2602083018461096a565b9392505050565b600080604083850312156109c0576109bf6106b9565b5b60006109ce858286016106e4565b92505060206109df858286016106e4565b9150509250929050565b600080fd5b600080fd5b7f4e487b7100000000000000000000000000000000000000000000000000000000600052604160045260246000fd5b610a2b82610920565b810181811067ffffffffffffffff82111715610a4a57610a496109f3565b5b80604052505050565b6000610a5d6106af565b9050610a698282610a22565b919050565b600067ffffffffffffffff821115610a8957610a886109f3565b5b610a9282610920565b9050602081019050919050565b82818337600083830152505050565b6000610ac1610abc84610a6e565b610a53565b905082815260208101848484011115610add57610adc6109ee565b5b610ae8848285610a9f565b509392505050565b600082601f830112610b0557610b046109e9565b5b8135610b15848260208601610aae565b91505092915050565b600067ffffffffffffffff821115610b3957610b386109f3565b5b602082029050602081019050919050565b600080fd5b6000610b62610b5d84610b1e565b610a53565b90508083825260208201905060208402830185811115610b8557610b84610b4a565b5b835b81811015610bcc57803567ffffffffffffffff811115610baa57610ba96109e9565b5b808601610bb78982610af0565b85526020850194505050602081019050610b87565b5050509392505050565b600082601f830112610beb57610bea6109e9565b5b8135610bfb848260208601610b4f565b91505092915050565b600080600060608486031215610c1d57610c1c6106b9565b5b600084013567ffffffffffffffff811115610c3b57610c3a6106be565b5b610c4786828701610af0565b935050602084013567ffffffffffffffff811115610c6857610c676106be565b5b610c7486828701610bd6565b9250506040610c85868287016106e4565b9150509250925092565b7f4e487b7100000000000000000000000000000000000000000000000000000000600052603260045260246000fd5b7f4e487b7100000000000000000000000000000000000000000000000000000000600052602260045260246000fd5b60006002820490506001821680610d0557607f821691505b602082108103610d1857610d17610cbe565b5b50919050565b7f506f6c6c20636c6f736564000000000000000000000000000000000000000000600082015250565b6000610d54600b836108e5565b9150610d5f82610d1e565b602082019050919050565b60006020820190508181036000830152610d8381610d47565b9050919050565b7f416c726561647920766f74656400000000000000000000000000000000000000600082015250565b6000610dc0600d836108e5565b9150610dcb82610d8a565b602082019050919050565b60006020820190508181036000830152610def81610db3565b9050919050565b7f4e487b7100000000000000000000000000000000000000000000000000000000600052601160045260246000fd5b6000610e30826106c3565b91507fffffffffffffffffffffffffffffffffffffffffffffffffffffffffffffffff8203610e6257610e61610df6565b5b600182019050919050565b610e7681610826565b82525050565b6000606082019050610e91600083018661096a565b610e9e6020830185610e6d565b610eab604083018461096a565b949350505050565b60008190508160005260206000209050919050565b60006020601f8301049050919050565b600082821b905092915050565b600060088302610f157fffffffffffffffffffffffffffffffffffffffffffffffffffffffffffffffff82610ed8565b610f1f8683610ed8565b95508019841693508086168417925050509392505050565b6000819050919050565b6000610f5c610f57610f52846106c3565b610f37565b6106c3565b9050919050565b6000819050919050565b610f7683610f41565b610f8a610f8282610f63565b848454610ee5565b825550505050565b600090565b610f9f610f92565b610faa818484610f6d565b505050565b5b81811015610fce57610fc3600082610f97565b600181019050610fb0565b5050565b601f82111561101357610fe481610eb3565b610fed84610ec8565b81016020851015610ffc578190505b61101061100885610ec8565b830182610faf565b50505b505050565b600082821c905092915050565b600061103660001984600802611018565b1980831691505092915050565b600061104f8383611025565b9150826002028217905092915050565b611068826108da565b67ffffffffffffffff811115611081576110806109f3565b5b61108b8254610ced565b611096828285610fd2565b600060209050601f8311600181146110c957600084156110b7578287015190505b6110c18582611043565b865550611129565b601f1984166110d786610eb3565b60005b828110156110ff578489015182556001820191506020850194506020810190506110da565b8683101561111c5784890151611118601f891682611025565b8355505b6001600288020188555050505b505050505050565b600061113c826106c3565b9150611147836106c3565b925082820190508082111561115f5761115e610df6565b5b92915050565b6000611170826106c3565b915061117b836106c3565b925082820390508181111561119357611192610df6565b5b92915050565b60006040820190506111ae600083018561096a565b81810360208301526111c08184610931565b9050939250505056fea2646970667358221220bb4dc5750606f155f8477114e5d0c193d6df345742c571806ecba196a8d7e2f664736f6c63430008140033",
  "linkReferences": {},
  "deployedLinkReferences": {}
}